{"abi":[{"type":"constructor","inputs":[{"name":"root","type":"bytes32","internalType":"bytes32"},{"name":"text","type":"string","internalType":"string"}],"stateMutability":"nonpayable"},{"type":"function","name":"ballotText","inputs":[],"outputs":[{"name":"","type":"string","internalType":"string"}],"stateMutability":"view"},{"type":"function","name":"getResults","inputs":[],"outputs":[{"name":"yes","type":"uint256","internalType":"uint256"},{"name":"no","type":"uint256","internalType":"uint256"}],"stateMutability":"view"},{"type":"function","name":"hasVoted","inputs":[{"name":"","type":"address","internalType":"address"}],"outputs":[{"name":"","type":"bool","internalType":"bool"}],"stateMutability":"view"},{"type":"function","name":"isValidVoter","inputs":[{"name":"voter","type":"address","internalType":"address"},{"name":"proof","type":"bytes32[]","internalType":"bytes32[]"}],"outputs":[{"name":"","type":"bool","internalType":"bool"}],"stateMutability":"view"},{"type":"function","name":"merkleRoot","inputs":[],"outputs":[{"name":"","type":"bytes32","internalType":"bytes32"}],"stateMutability":"view"},{"type":"function","name":"noVotes","inputs":[],"outputs":[{"name":"","type":"uint256","internalType":"uint256"}],"stateMutability":"view"},{"type":"function","name":"vote","inputs":[{"name":"voteYes","type":"bool","internalType":"bool"},{"name":"proof","type":"bytes32[]","internalType":"bytes32[]"}],"outputs":[],"stateMutability":"nonpayable"},{"type":"function","name":"yesVotes","inputs":[],"outputs":[{"name":"","type":"uint256","internalType":"uint256"}],"stateMutability":"view"}],"bytecode":{"object":"0x608060405234801561001057600080fd5b5060405161094e38038061094e83398101604081905261002f9161005e565b6001829055600061004082826101bd565b50505061027c565b634e487b7160e01b600052604160045260246000fd5b6000806040838503121561007157600080fd5b8251602080850151919350906001600160401b038082111561009257600080fd5b818601915086601f8301126100a657600080fd5b8151818111156100b8576100b8610048565b604051601f8201601f19908116603f011681019083821181831017156100e0576100e0610048565b8160405282815289868487010111156100f857600080fd5b600093505b8284101561011a57848401860151818501870152928501926100fd565b60008684830101528096505050505050509250929050565b600181811c9082168061014657607f821691505b60208210810361016657634e487b7160e01b600052602260045260246000fd5b50919050565b601f8211156101b8576000816000526020600020601f850160051c810160208610156101955750805b601f850160051c820191505b818110156101b4578281556001016101a1565b5050505b505050565b81516001600160401b038111156101d6576101d6610048565b6101ea816101e48454610132565b8461016c565b602080601f83116001811461021f57600084156102075750858301515b600019600386901b1c1916600185901b1785556101b4565b600085815260208120601f198616915b8281101561024e5788860151825594840194600190910190840161022f565b508582101561026c5787850151600019600388901b60f8161c191681555b5050505050600190811b01905550565b6106c38061028b6000396000f3fe608060405234801561001057600080fd5b50600436106100885760003560e01c806381c8cb9b1161005b57806381c8cb9b1461010c578063b5b47f4214610121578063f7cc06131461012a578063fb286c651461013d57600080fd5b806309eef43e1461008d57806320cfa3c4146100c55780632eb4a7ab146100da5780634717f97c146100f1575b600080fd5b6100b061009b366004610438565b60026020526000908152604090205460ff1681565b60405190151581526020015b60405180910390f35b6100d86100d3366004610453565b610146565b005b6100e360015481565b6040519081526020016100bc565b600354600454604080519283526020830191909152016100bc565b610114610262565b6040516100bc91906104e0565b6100e360045481565b6100b0610138366004610545565b6102f0565b6100e360035481565b3360009081526002602052604090205460ff161561019b5760405162461bcd60e51b815260206004820152600d60248201526c105b1c9958591e481d9bdd1959609a1b60448201526064015b60405180910390fd5b6101d8338383808060200260200160405190810160405280939291908181526020018383602002808284376000920191909152506102f092505050565b6102185760405162461bcd60e51b81526020600482015260116024820152702737ba1030903b30b634b2103b37ba32b960791b6044820152606401610192565b336000908152600260205260409020805460ff191660011790558215610252576003805490600061024883610616565b9190505550505050565b6004805490600061024883610616565b6000805461026f9061063d565b80601f016020809104026020016040519081016040528092919081815260200182805461029b9061063d565b80156102e85780601f106102bd576101008083540402835291602001916102e8565b820191906000526020600020905b8154815290600101906020018083116102cb57829003601f168201915b505050505081565b604080516001600160a01b038416602082015260009182910160408051601f198184030181528282528051602091820120908301520160405160208183030381529060405280519060200120905061034b8360015483610391565b6103875760405162461bcd60e51b815260206004820152600d60248201526c24b73b30b634b210383937b7b360991b6044820152606401610192565b5060019392505050565b60008261039e85846103a7565b14949350505050565b600081815b84518110156103e2576103d8828683815181106103cb576103cb610677565b60200260200101516103ea565b91506001016103ac565b509392505050565b6000818310610406576000828152602084905260409020610415565b60008381526020839052604090205b9392505050565b80356001600160a01b038116811461043357600080fd5b919050565b60006020828403121561044a57600080fd5b6104158261041c565b60008060006040848603121561046857600080fd5b8335801515811461047857600080fd5b9250602084013567ffffffffffffffff8082111561049557600080fd5b818601915086601f8301126104a957600080fd5b8135818111156104b857600080fd5b8760208260051b85010111156104cd57600080fd5b6020830194508093505050509250925092565b60006020808352835180602085015260005b8181101561050e578581018301518582016040015282016104f2565b506000604082860101526040601f19601f8301168501019250505092915050565b634e487b7160e01b600052604160045260246000fd5b6000806040838503121561055857600080fd5b6105618361041c565b915060208084013567ffffffffffffffff8082111561057f57600080fd5b818601915086601f83011261059357600080fd5b8135818111156105a5576105a561052f565b8060051b604051601f19603f830116810181811085821117156105ca576105ca61052f565b6040529182528482019250838101850191898311156105e857600080fd5b938501935b82851015610606578435845293850193928501926105ed565b8096505050505050509250929050565b60006001820161063657634e487b7160e01b600052601160045260246000fd5b5060010190565b600181811c9082168061065157607f821691505b60208210810361067157634e487b7160e01b600052602260045260246000fd5b50919050565b634e487b7160e01b600052603260045260246000fdfea2646970667358221220b7eb187f5b78a3b2c7871def9e5634af19eb430fc09c2575a7f398fb181a4a6464736f6c63430008170033","linkReferences":{}},"methodIdentifiers":{"ballotText()":"81c8cb9b","getResults()":"4717f97c","hasVoted(address)":"09eef43e","isValidVoter(address,bytes32[])":"f7cc0613","merkleRoot()":"2eb4a7ab","noVotes()":"b5b47f42","vote(bool,bytes32[])":"20cfa3c4","yesVotes()":"fb286c65"},"id":23}